:100000000C9430000C9477020C9477020C947702D5
:100010000C9477020C9477020C9477020C9477027C
:100020000C9477020C9477020C9477020C9477026C
:100030000C9477020C9477020C9477020C9477025C
:100040000C9477020C9477020C9477020C9477024C
:100050000C9477020060006C0004F2006C006E806B
:1000600011241FBECFE5D8E0DEBFCDBFE4E5F0E050
:1000700040E017C0B591A59135912591059107FDF7
:100080000CC095918591EF01F92FE82F05900D9205
:10009000A217B307D9F7FE0104C01D92A217B30738
:1000A000E1F7E036F40731F70E9437020C9458006C
:0400B000F894FFCFF2
:1000B400AF92BF92CF92DF92EF92FF920F931F9372
:1000C400CF93DF93CDB7DEB763970FB6F894DEBF57
:1000D4000FBECDBFF82E8CE0E0E6F0E0DE01119615
:1000E40001900D928A95E1F76D874E872F87088BD3
:1000F400E98ACA8AAB8A00E06FC080916C00E1E1B2
:10010400F0E0EC0FFD1FE80FF11D60818F2D0E94C0
:10011400F701E3ECF9E03197F1F700C0000081301A
:10012400A1F480916D0090E020916C00FC01EE0F31
:10013400FF1FE80FF91F81E090E08C0F9D1FE80F6F
:10014400F91FE20FF11D80814AC0A02EB12CEDE011
:10015400F0E0EC0FFD1FEA0DFB1DE08041E06E2D89
:100164008F2D0E94AC0110E029C0C12ED12CE1E1F9
:10017400F0E0EC0FFD1FEC0DFD1D60818F2D0E9442
:10018400F701E3ECF9E03197F1F700C000008130AA
:10019400A1F410936C0000936D00C501880F991FA2
:1001A400A80EB91E81E090E08C0F9D1FA80EB91E09
:1001B400F501EC0DFD1D808112C01F5F1330A8F204
:1001C40040E06E2D8F2D0E94AC01E3ECF9E03197F5
:1001D400F1F700C000000F5F043008F48ECF63967F
:1001E4000FB6F894DEBF0FBECDBFDF91CF911F9144
:1001F4000F91FF90EF90DF90CF90BF90AF90089554
:10020400FC012181213021F420B7246020BF02C0E9
:1002140020B710BE6234D9F018F4613431F0089577
:10022400633439F16434B9F10895FC01808181307B
:1002340059F42AB381E090E002C0880F991F4A95CF
:10024400E2F7822B8ABB08958AB31ABA0895FC0197
:100254008081813059F427B381E090E002C0880F97
:10026400991F4A95E2F7822B87BB089587B317BA83
:100274000895FC018081813059F424B381E090E039
:1002840002C0880F991F4A95E2F7822B84BB089518
:1002940084B314BA0895FC018081813059F421B3E8
:1002A40081E090E002C0880F991F4A95E2F7822B03
:0A02B40081BB089581B311BA0895CB
:1002BE00AF92CF92DF92EF92FF920F931F93CF9355
:1002CE00DF9300D000D0CDB7DEB7182FD42EF22E8C
:1002DE0081E089831A821B821C82462F612FCE01F8
:1002EE0001960E9402014D2D612FCE0101960E94B2
:1002FE0002014F2D612FCE0101960E940201402F67
:10030E00612FCE0101960E9402014E2D612FCE016A
:10031E0003960E9402014C2D612FCE0103960E947E
:10032E0002014A2D612FCE0103960E9402010F9009
:10033E000F900F900F90DF91CF911F910F91FF9023
:0A034E00EF90DF90CF90AF9008957C
:100358008234C9F018F4813431F00895833419F1E6
:10036800843489F10895413059F42BB381E090E049
:1003780002C0880F991F6A95E2F7822B8BBB0895FC
:100388008BB31BBA0895413059F428B381E090E04B
:1003980002C0880F991F6A95E2F7822B88BB0895DF
:1003A80088B318BA0895413059F425B381E090E034
:1003B80002C0880F991F6A95E2F7822B85BB0895C2
:1003C80085B315BA0895413059F422B381E090E01D
:1003D80002C0880F991F6A95E2F7822B82BB0895A5
:0603E80082B312BA089571
:1003EE008234A1F018F4813431F031C08334C9F075
:1003FE00843411F12CC089B390E002C09595879595
:10040E006A95E2F780FD24C080E0089586B390E0FF
:10041E0002C0959587956A95E2F780FF1BC081E033
:10042E00089583B390E002C0959587956A95E2F79B
:10043E0080FF12C081E0089580B390E002C09595D0
:10044E0087956A95E2F780FF09C081E008950895C7
:10045E0081E0089580E0089580E0089580E0089599
:10046E00CF93DF9300D0CDB7DEB70F2EF6E0AF2ED1
:10047E00F02D0F2EF5E0CF2EF02D6894EE24E2F83D
:10048E0003E022E041E060E082E40E945F0181E04F
:10049E0089831A8247E064E4CE0101960E9402012C
:1004AE000F2EF6E0AF2EF02D0F2EF5E0CF2EF02D05
:1004BE006894EE24E2F803E022E041E060E082E49A
:1004CE000E945A00823331F441E067E084E40E94D6
:1004DE00AC01E6CF40E067E084E40E94AC01E0CFDF
:0404EE000C9400006A
:0C04F2003132333435363738392A3023A4
:00000001FF
